:100000000C9481000C94A9000C94A9000C94A900F4
:100010000C94A9000C94A9000C94A9000C94A900BC
:100020000C94A9000C94A9000C94A9000C94A900AC
:100030000C94A9000C94A9000C94A9000C94A9009C
:100040000C94AC030C94A9000C94CF060C94A9005A
:100050000C94A9000C94A9000C94A9000C94A9007C
:100060000C94A9000C94A900036EDB363D9A999973
:10007000993DABAAAA2A3E000000803F072C7AA532
:10008000BA6CC590DA3B9365FC8BBC53F810FD3C11
:100090005692834DBD879D3AB63DCBC9BF5BBE73BB
:1000A000DA0FC93F00000000240027002A000000EA
:1000B0000000250028002B0000000000230026007F
:1000C00029000404040404040404020202020202DB
:1000D000030303030303010204081020408001020C
:1000E000040810200102040810200000000700028C
:1000F00001000003040600000000000000003201BF
:10010000840711241FBECFEFD8E0DEBFCDBF11E0C2
:10011000A0E0B1E0E0E6F6E102C005900D92AA3160
:10012000B107D9F712E0AAE1B1E001C01D92A733EF
:10013000B107E1F710E0C2E0D1E004C02297FE0170
:100140000E942A0BCE3FD107C9F70E94A5030C9449
:100150002E0B0C940000CF93DF93EC0188810E945A
:1001600080069B838A830197A1F48C819D810197EE
:1001700081F020E030E08E819F81892B11F421E015
:1001800030E03F832E8364E170E080E090E00E94E5
:1001900002048A819B819D838C83DF91CF91089596
:1001A0000F931F938C010E94AB00F8018681978109
:1001B0001F910F9108950F931F938C01862FF801C3
:1001C0006083718360E00E941306F801138212823B
:1001D00081E090E095838483178216821F910F91AE
:1001E0000895AF92BF92CF92DF92EF92FF920F935A
:1001F0001F93CF93DF935B016C010F2EF0E0EF2E86
:10020000F0E0FF2EF0E00F2FF0E01F2FF02DC0E008
:10021000D0E00DC0F60121913191419151916F01D2
:10022000C801B7010E94DD077B018C012196CA1528
:10023000DB0584F3B501882777FD8095982F0E9410
:10024000F7089B01AC01C801B7010E945C08DF916F
:10025000CF911F910F91FF90EF90DF90CF90BF90C3
:10026000AF90089562E070E080E991E00E94DB00C9
:100270000895EF92FF920F931F93CF93DF9300E0C7
:1002800010E0C0E0D0E0809108010E94BE0790938A
:10029000230180932201080F191F62E070E080E0C3
:1002A00090E00E9402042196CA30D10561F7C8018E
:1002B0006AE070E00E94C40A7093230160932201F7
:1002C00020910C0130910D01621B730B882777FD83
:1002D0008095982F0E94F7087B018C0160910A019C
:1002E00070910B01882777FD8095982F0E94F70861
:1002F0009B01AC01C801B7010E945C089B01AC01E5
:1003000020938C0130938D0140938E0150938F0187
:100310000E94410820EE3EE245E652E40E94FC09BC
:10032000DF91CF911F910F91FF90EF900895EF9281
:10033000FF920F931F93CF93DF9300E010E0C0E094
:10034000D0E080911A010E94BE0790932101809312
:100350002001080F191F62E070E080E090E00E9429
:1003600002042196CA30D10561F7C8016AE070E045
:100370000E94C40A709321016093200120910C0116
:1003800030910D01621B730B882777FD8095982FA4
:100390000E94F7087B018C0160910A0170910B01AA
:1003A000882777FD8095982F0E94F7089B01AC0164
:1003B000C801B7010E945C089B01AC012093580161
:1003C0003093590140935A0150935B010E944108B8
:1003D00020EE3EE245E652E40E94FC09DF91CF9117
:1003E0001F910F91FF90EF9008954F925F926F923F
:1003F0007F928F929F92AF92BF92CF92DF92EF92B5
:10040000FF920F931F93CF93DF9340902201509060
:100410002301C0910C01D0910D0160910A017091EE
:100420000B01882777FD8095982F0E94F7087B01A4
:100430008C0160912001709121016C1B7D0B88273C
:1004400077FD8095982F0E94F708A80197010E94D8
:100450005C08209158013091590140915A01509106
:100460005B010E94DC073B014C012FEE3FEF4FE7A1
:100470005FEB0E94580888235CF40F2EFFEE6F2E6E
:10048000FFEF7F2EFFE78F2EFFEB9F2EF02D14C086
:100490002FEE3FEF4FE75FE3C401B3010E94F8097D
:1004A000181654F40F2EFFEE6F2EFFEF7F2EFFE78E
:1004B0008F2EFFE39F2EF02DB2016C1B7D0B882742
:1004C00077FD8095982F0E94F708A80197010E9458
:1004D0005C0820918C0130918D0140918E015091EA
:1004E0008F010E94DC077B018C012FEE3FEF4FE76D
:1004F0005FEB0E94580888235CF40F2EFFEEEF2E6E
:10050000FFEFFF2EFFE70F2FFFEB1F2FF02D14C083
:100510002FEE3FEF4FE75FE3C801B7010E94F809F4
:10052000181654F40F2EFFEEEF2EFFEFFF2EFFE70D
:100530000F2FFFE31F2FF02DC801B7010E944108C4
:1005400020EE3EE245E652E40E94FC097B018C016C
:10055000CB01D8018093840190938501A0938601FB
:10056000B0938701A0905201B0905301C401B30130
:100570000E9441086501CC0CDD1CCC0CDD1C2AE27C
:10058000822E21E0922E8C0C9D1C20EE3EE245E650
:1005900052E40E94FC09F401608371838283938397
:1005A0008CE591E0C80ED91EC701D801F601808301
:1005B0009183A283B3830894A11CB11CB092530110
:1005C000A0925201FAE0AF16B10421F41092530147
:1005D000109252016AE070E08AE291E00E94F1001C
:1005E0006AE070E08CE591E00E94F100B20188279A
:1005F00077FD8095982F0E94F70820E030E040E8D2
:100600005AE30E94FC0923E333E343E550E40E94EC
:10061000FC09AB01BC0185E292E00E940806DF9173
:10062000CF911F910F91FF90EF90DF90CF90BF90EF
:10063000AF909F908F907F906F905F904F900895B4
:1006400080E991E00E94D000892B09F44DC061E05F
:10065000809102010E943306809104010E94BE072E
:1006600090931D0180931C01809106010E94BE079A
:1006700090931F0180931E0180911A010E94BE0772
:100680009093210180932001809108010E94BE0770
:1006900090932301809322010E94F403209126016C
:1006A000309127014091280150912901621B730B61
:1006B000840B950B2091240130912501442737FDAF
:1006C0004095542F621773078407950790F00E9496
:1006D000F40360932601709327018093280190937F
:1006E00029010E94F501089560E0809102010E94B5
:1006F0003306089540E855E260E070E085E292E05C
:100700000E940C0761E0809102010E94130680E0C4
:100710000E94BB070E94970160935401709355019A
:1007200080935601909357010E943901609388018C
:100730007093890180938A0190938B0168EC70E03B
:1007400080E090E00E94020408950E942C040E9420
:100750007A030E942003FDCF1F920F920FB60F92D3
:1007600011242F933F938F939F93AF93BF938091C7
:100770009C0190919D01A0919E01B0919F013091AB
:10078000A0010196A11DB11D232F2D5F2D3720F053
:100790002D570196A11DB11D2093A00180939C01AE
:1007A00090939D01A0939E01B0939F018091980129
:1007B00090919901A0919A01B0919B010196A11D80
:1007C000B11D8093980190939901A0939A01B093E1
:1007D0009B01BF91AF919F918F913F912F910F906E
:1007E0000FBE0F901F9018958FB7F89420919C0121
:1007F00030919D0140919E0150919F018FBFB901A1
:10080000CA010895EF92FF920F931F937B018C0111
:100810008FB7F89440919C0150919D0160919E0189
:1008200070919F018FBF2FB7F89480919C01909198
:100830009D01A0919E01B0919F012FBF841B950B3C
:10084000A60BB70BE816F9060A071B0760F71F91FE
:100850000F91FF90EF900895789484B5826084BDE5
:1008600084B5816084BD85B5826085BD85B58160B4
:1008700085BDEEE6F0E0808181608083E1E8F0E014
:10088000808182608083808181608083E0E8F0E005
:10089000808181608083E1EBF0E0808184608083EF
:1008A000E0EBF0E0808181608083EAE7F0E0808126
:1008B0008460808380818260808380818160808386
:1008C0008081806880831092C10008950F931F93E8
:1008D000CF93DF938C01EB0109C02196D801ED91F4
:1008E000FC910190F081E02DC80109956881662393
:1008F000A1F7DF91CF911F910F910895EF92FF9291
:100900000F931F93CF93DF938C017B01EA010CC0FF
:10091000D7016D917D01D801ED91FC910190F0819D
:10092000E02DC80109952197209791F7DF91CF918C
:100930001F910F91FF90EF900895DC01ED91FC91D4
:100940000280F381E02D099508950F931F938C0188
:10095000DC01ED91FC910190F081E02D6DE00995B5
:10096000D801ED91FC910190F081E02D6AE0C80181
:1009700009951F910F9108952F923F924F925F9288
:100980006F927F928F929F92AF92BF92CF92DF929F
:10099000EF92FF920F931F93DF93CF93CDB7DEB704
:1009A000A0970FB6F894DEBF0FBECDBF1C016A0141
:1009B0007B01411551056105710549F4DC01ED919B
:1009C000FC910190F081E02D60E3099554C08824EA
:1009D00099245401422E55246624772401E010E026
:1009E0000C0F1D1F080D191DC701B601A3019201AF
:1009F0000E94D70AF80160830894811C911CA11CF5
:100A0000B11CC701B601A30192010E94D70AC90116
:100A1000DA016C017D01C114D104E104F104F1F6A5
:100A200081E0E82EF12CEC0EFD1EE80CF91C3E01D5
:100A30000894611C711CD501C4010197A109B10979
:100A40006C01C818D90814C0F601EE0DFF1D6081B5
:100A50006A3010F4605D01C0695CD101ED91FC91D8
:100A60000190F081E02DC10109950894E108F10899
:100A70006E147F0449F7A0960FB6F894DEBF0FBE40
:100A8000CDBFCF91DF911F910F91FF90EF90DF903D
:100A9000CF90BF90AF909F908F907F906F905F901E
:100AA0004F903F902F9008952AE00E94BC04089533
:100AB000EF92FF920F931F93CF93DF93EC017A0194
:100AC0008B0177FF0FC0E881F9810190F081E02D63
:100AD0006DE2099510950095F094E094E11CF11CED
:100AE000011D111D2AE0B801A701CE010E94BC041E
:100AF000DF91CF911F910F91FF90EF9008959F92FA
:100B0000AF92BF92CF92DF92EF92FF920F931F931B
:100B1000CF93DF93EC017A018B01922E20E030E03D
:100B200040E050E0C801B7010E945808882364F4EF
:100B3000E881F9810190F081E02D6DE2CE01099507
:100B400017FB109517F9109560E070E080E09FE3C7
:100B5000AA2407C020E030E040E251E40E945C0893
:100B6000A394A914B8F39B01AC01C801B7010E947A
:100B7000DD075B016C010E94C9087B018C01AB01A0
:100B8000BC01CE010E945405992029F060E071E07B
:100B9000CE010E949D04C801B7010E94F5089B0187
:100BA000AC01C601B5010E94DC0720C020E030E0A6
:100BB00040E251E40E94FC097B018C010E94C408C0
:100BC0005B016C01CC24B7FCC094DC2CB601A50100
:100BD000CE010E945805C601B5010E94F7089B018D
:100BE000AC01C801B7010E94DC079A949920F1F684
:100BF000DF91CF911F910F91FF90EF90DF90CF90F9
:100C0000BF90AF909F90089522E00E947F050895C5
:100C10000F931F938C010E940406C8010E94A50433
:100C20001F910F910895282F30E0C9018A529F4FDC
:100C3000FC0194912E533F4FF9018491882391F048
:100C4000E82FF0E0EE0FFF1FEC55FF4FA591B49198
:100C5000662329F48C91909589238C9308958C9127
:100C6000892B8C930895482F50E0CA0186519F4FDD
:100C7000FC012491CA018A529F4FFC0194914E536A
:100C80005F4FFA0134913323D1F1222331F1233024
:100C900021F4809180008F7705C0243031F4809159
:100CA00080008F7D8093800018C0213019F484B5B6
:100CB0008F7704C0223021F484B58F7D84BD0DC0B0
:100CC000263021F48091B0008F7705C0273029F4B9
:100CD0008091B0008F7D8093B000E32FF0E0EE0FA5
:100CE000FF1FE255FF4FA591B491662329F48C9123
:100CF000909589238C9308958C91892B8C930895DA
:100D0000682F70E0CB0186519F4FFC012491CB01ED
:100D10008A529F4FFC0144916E537F4FFB01949187
:100D2000992319F420E030E038C0222331F1233038
:100D300021F4809180008F7705C0243031F48091B8
:100D400080008F7D8093800018C0213019F484B515
:100D50008F7704C0223021F484B58F7D84BD0DC00F
:100D6000263021F48091B0008F7705C0273029F418
:100D70008091B0008F7D8093B000892F90E0880F24
:100D8000991F88549F4FFC01A591B4918C9120E04C
:100D900030E0842311F021E030E0C90108951F9272
:100DA0000F920FB60F9211242F933F934F935F939F
:100DB0006F937F938F939F93AF93BF93EF93FF9323
:100DC0004091C600E0912102F0912202CF010196EC
:100DD00060E870E00E94C40A9C0180912302909117
:100DE00024022817390739F0EF55FE4F408330931E
:100DF000220220932102FF91EF91BF91AF919F9129
:100E00008F917F916F915F914F913F912F910F90B3
:100E10000FBE0F901F901895AF92BF92CF92DF92A6
:100E2000EF92FF920F931F93CF93DF937A018B0181
:100E3000EC01AC80BD80CB01BA0122E030E040E0A3
:100E400050E00E94F90A205C3D4B404F5F4FCA01C1
:100E5000B901A80197010E94F90AC901DA010197B5
:100E6000A109B109292F3A2F4B2F552747FD5A9534
:100E70000196A11DB11DF5012083EE81FF818150F6
:100E80008083EA85FB85208141E050E0CA010E8421
:100E900002C0880F991F0A94E2F7282B2083EA8565
:100EA000FB852081CA010F8402C0880F991F0A9414
:100EB000E2F7282B2083EA85FB858081088802C021
:100EC000440F551F0A94E2F7842B8083DF91CF9162
:100ED0001F910F91FF90EF90DF90CF90BF90AF9058
:100EE0000895FC01A085B18521898C9190E0022EA6
:100EF00002C0959587950A94E2F780FFF6CF0484A7
:100F0000F585E02D6083089583E191E090932602BA
:100F10008093250281EA91E0909328028093270232
:100F200085EC90E090932A028093290284EC90E073
:100F300090932C0280932B0280EC90E090932E02F1
:100F400080932D0281EC90E09093300280932F02E9
:100F500086EC90E0909332028093310284E080939B
:100F6000330283E08093340287E08093350285E08A
:100F700080933602089580930E01089587709091B2
:100F80000E019295990F990F907C982B90937C006D
:100F900080917A00806480937A0080917A0086FD47
:100FA000FCCF2091780040917900942F80E030E0D0
:100FB000282B392BC90108955058BB27AA270ED0DA
:100FC000DDC1CED130F0D3D120F031F49F3F11F408
:100FD0001EF48DC10EF4E095E7FB83C1E92FDFD14C
:100FE00080F3BA17620773078407950718F071F446
:100FF0009EF5F7C10EF4E0950B2EBA2FA02D0B0134
:10100000B90190010C01CA01A0011124FF27591B4D
:1010100099F0593F50F4503E68F11A16F040A22F53
:10102000232F342F4427585FF3CF469537952795C4
:10103000A795F0405395C9F77EF41F16BA0B620BC3
:10104000730B840BBAF09150A1F0FF0FBB1F661F0A
:10105000771F881FC2F70EC0BA0F621F731F841F4D
:1010600048F4879577956795B795F7959E3F08F073
:10107000B3CF9395880F08F09927EE0F9795879532
:1010800008959F939F77EEE389379E0720F4E8E663
:10109000F0E055D109C0E6D09058A2EA2AED3FE031
:1010A00049EC5FE39BDF6AD10F9007FC90580895ED
:1010B000F4D008F481E008950CD060C158D140F01C
:1010C0004FD130F021F45F3F19F00BC151118AC1AB
:1010D0000EC165D198F39923C9F35523B1F3951B3C
:1010E000550BBB27AA2762177307840738F09F5F49
:1010F0005F4F220F331F441FAA1FA9F333D00E2EB8
:101100003AF0E0E830D091505040E695001CCAF724
:1011100029D0FE2F27D0660F771F881FBB1F2617E9
:1011200037074807AB07B0E809F0BB0B802DBF01BC
:10113000FF2793585F4F2AF09E3F510568F0D1C0BA
:1011400051C15F3FECF3983EDCF386957795679548
:10115000B795F7959F5FC9F7880F911D969587956D
:1011600097F90895E1E0660F771F881FBB1F62178C
:1011700073078407BA0720F0621B730B840BBA0B4A
:10118000EE1F88F7E095089504D06894B1112AC144
:1011900008950DD188F09F5790F0B92F9927B75136
:1011A000A0F0D1F0660F771F881F991F1AF0BA952B
:1011B000C9F712C0B13081F014D1B1E0089511C166
:1011C000672F782F8827B85F39F0B93FCCF3869521
:1011D00077956795B395D9F73EF49095809570957E
:1011E00061957F4F8F4F9F4F0895E89409C097FBFB
:1011F0003EF490958095709561957F4F8F4F9F4FEE
:101200009923A9F0F92F96E9BB279395F695879531
:1012100077956795B795F111F8CFFAF4BB0F11F4F4
:1012200060FF1BC06F5F7F4F8F4F9F4F16C088239B
:1012300011F096E911C0772321F09EE8872F762FD1
:1012400005C0662371F096E8862F70E060E02AF012
:101250009A95660F771F881FDAF7880F96958795FE
:1012600097F90895DF93CF931F930F938B01EC01B0
:10127000ECE7F0E03FD082D09801AE018B01EC01A9
:1012800060E070E080E89FE397DE1DD19801AE0139
:101290000F911F91CF91DF91BBC0990F0008550F9F
:1012A000AA0BE0E8FEEF16161706E807F907C0F0EC
:1012B00012161306E407F50798F0621B730B840BF4
:1012C000950B39F40A2661F0232B242B252B21F4CE
:1012D00008950A2609F4A140A6958FEF811D811D6E
:1012E000089597F99F6780E870E060E008959FEFA8
:1012F00080EC0895DF93CF931F930F93FF92EF92AB
:10130000DF927B018C01689405C0DA2EEF0180D05A
:10131000FE01E894A5912591359145915591AEF343
:10132000EF015CDEFE019701A801DA9479F7DF9006
:10133000EF90FF900F911F91CF91DF9108959F93B0
:101340008F937F936F93FF93EF939B01AC0154D0E6
:10135000EF91FF91CFDF2F913F914F915F914CC063
:1013600000240A9416161706180609060895002484
:101370000A9412161306140605060895092E0394FE
:10138000000C11F4882352F0BB0F40F4BF2B11F472
:1013900060FF04C06F5F7F4F8F4F9F4F089557FDD1
:1013A0009058440F551F59F05F3F71F04795880FD3
:1013B00097FB991F61F09F3F79F08795089512166A
:1013C00013061406551FF2CF4695F1DF08C0161616
:1013D00017061806991FF1CF8695710561050894C7
:1013E0000895E894BB2766277727CB0197F90895DE
:1013F00054DF08F48FEF08950BD0C0CFB1DF28F091
:10140000B6DF18F0952309F06CCF71CF1124EACF25
:10141000C6DFA0F3959FD1F3950F50E0551F629F53
:10142000F001729FBB27F00DB11D639FAA27F00D3D
:10143000B11DAA1F649F6627B00DA11D661F829F64
:101440002227B00DA11D621F739FB00DA11D621F49
:10145000839FA00D611D221F749F3327A00D611D66
:10146000231F849F600D211D822F762F6A2F112448
:101470009F5750408AF0E1F088234AF0EE0FFF1F9B
:10148000BB1F661F771F881F91505040A9F79E3FD2
:10149000510570F026CFA6CF5F3FECF3983EDCF30A
:1014A000869577956795B795F795E7959F5FC1F70F
:1014B000FE2B880F911D9695879597F9089511F445
:1014C0000EF415CF4AC073DFD0F39923D9F3CEF3CE
:1014D0009F57550B87FF51D056959795B0E020F454
:1014E000660F771F881FBB1F1F930F930024900167
:1014F000A0018001F001A0E80E0F1F1F0A1E511D60
:10150000601B710B8009B50B48F4600F711F801DC3
:10151000B51F0E1B1F0B0A0A510907C02E0F3F1FD4
:101520004A1F0E0F1F1F0A1E511D660F771F881FAF
:10153000BB1FA695F795E795F8F606171707080657
:101540005B07211D311D411D0F911F91B901842F92
:101550009158880F9695879508959F3F49F091502F
:1015600028F4869577956795B7959F5F80389F4F4C
:10157000880F9695879597F9089591505040660F7A
:10158000771F881FD2F7089597FB092E07260AD0E8
:1015900077FD04D049D006D000201AF470956195EB
:1015A0007F4F0895F6F7909581959F4F0895A1E29A
:1015B0001A2EAA1BBB1BFD010DC0AA1FBB1FEE1FCD
:1015C000FF1FA217B307E407F50720F0A21BB30B18
:1015D000E40BF50B661F771F881F991F1A9469F794
:1015E00060957095809590959B01AC01BD01CF01F0
:1015F000089597FB092E05260ED057FD04D0D7DF9E
:101600000AD0001C38F450954095309521953F4FF5
:101610004F4F5F4F0895F6F79095809570956195BF
:101620007F4F8F4F9F4F0895AA1BBB1B51E107C0EF
:10163000AA1FBB1FA617B70710F0A61BB70B881F62
:10164000991F5A95A9F780959095BC01CD010895F1
:10165000EE0FFF1F0590F491E02D0994F894FFCF51
:101660002E000D00020004000100610008030100CB
:0A167000000000710766047E04000C
:00000001FF
